:020000040800F2
:1000000000500020D5160008B1170008B5170008E9
:10001000CD170008D1170008D51700080000000010
:10002000000000000000000000000000E9190008C6
:10003000D917000800000000891A0008CD1A00082E
:100040002F1700083117000833170008351700086C
:1000500037170008391700083B1700083D1700083C
:100060003F1700084117000843170008451700080C
:1000700047170008491700084B1700084D170008DC
:10008000FD0900087D0900085317000855170008EE
:1000900057170008591700085B1700085D1700087C
:1000A0005F1700086117000863170008651700084C
:1000B00067170008691700086B1700088D03000810
:1000C0006F170008B90300087317000875170008B8
:1000D0007717000879170008F10A00087D17000853
:1000E0007F170008811700088317000810B5054C1A
:1000F000237833B9044B13B10448AFF300800123D4
:10010000237010BD7800002000000000142B0008B0
:1001100008B5064B1BB106480649AFF300800648F8
:10012000036813B1054B03B1984708BD00000000F8
:10013000142B00087C000020780000200000000044
:10014000154B002B08BF134B9D46A3F5803A0021A9
:100150008B460F461348144A121A02F098FC0F4BB4
:10016000002B00D098470E4B002B00D09847002062
:10017000002104000D000D48002802D00C48AFF308
:10018000008002F055FC2000290001F0EDF902F09A
:100190003BFC00BF000008000050002000000000F1
:1001A0000000000078000020943E002000000000C5
:1001B00000000000F8B50C461E46818A89B211F095
:1001C000010F02D023780382F8BD01F00205ADB221
:1001D000002D2ED0038B237B3BB163896268D25CF8
:1001E000028203F101036381F8BD2389012B14D13D
:1001F000038823F480634FEA03434FEA13430380E9
:1002000003889BB243F40073038010464FF0000153
:100210000A460B4601F01AFEF8BD022B40F0B580ED
:10022000038823F480634FEA03434FEA13430380B8
:10023000F8BD01F004039BB2002B53D0038B237B4A
:100240006BB103889BB243F4007303804FF000034B
:100250006381104619461A4601F0F8FDF8BD63891E
:10026000058A6168CD5403F1010189B26181078A71
:1002700065686F5403F102039BB26381218999423F
:1002800040F08380038823F480634FEA03434FEAFE
:100290001343038003889BB243F4007303804FF041
:1002A0000005658140F29407C2F200073D601046E8
:1002B00029462A462B4601F0C9FD304604F10401C7
:1002C0003A462B4601F05EFE3B68012B01BF4EF61D
:1002D0000453CEF200034FF080521A60606801F0C0
:1002E000ABFCF8BD01F080039BB253B16389228956
:1002F0009A424AD96268D25C028203F101036381A7
:10030000F8BD01F0400189B200293ED06389058A19
:100310006168CD5403F101039BB26381218903F12C
:1003200001058D420DD1038823F480634FEA034316
:100330004FEA1343038003889BB243F400730380A6
:10034000F8BD8B4221D14FF00005658140F2940742
:10035000C2F200073D60104629462A462B4601F0AE
:1003600075FD304604F104013A462B4601F00AFEC1
:100370003B68012B01BF4EF60453CEF200034FF051
:1003800080521A60606801F057FCF8BD08B543F66A
:10039000A453C2F200031A6843F6BC53C2F200032E
:1003A0004FF4A840C4F2000043F6C051C2F200016D
:1003B0001B68FFF7FFFE08BD08B543F6B853C2F24D
:1003C00000031A6843F6A053C2F200034FF4B04092
:1003D000C4F2000043F6A851C2F200011B68FFF707
:1003E000E9FE08BD10B504464FF48053C4F2020381
:1003F0009A6942F009029A614FF4A843C4F20003DB
:10040000984241D14FF48052C4F20202D36943F4BE
:100410000013D3614FF44063C4F20103196841F043
:1004200040511960196841F040411960196841F064
:1004300040711960196841F040611960136943F413
:1004400000131361136923F4001313614FF4614324
:10045000CEF200034FF000421A604FF005004FF05B
:1004600006014FF0000201F0C9FC43F6BC53C2F292
:10047000000318604FF0010001F05EFD43F6A45345
:10048000C2F20003186040E04FF48052C4F202024E
:10049000D36943F48003D3614FF44063C4F2010392
:1004A000596841F440515960596841F440415960DC
:1004B000596841F440715960596841F4406159608C
:1004C000136943F480031361136923F480031361F8
:1004D0004FF46143CEF200034FF002025A604FF036
:1004E00005004FF004014FF0000201F087FC43F6D5
:1004F000A053C2F2000318604FF0010001F01CFD90
:1005000043F6B853C2F20003186023886FEA4343EE
:100510006FEA53439BB2238023884FEA43434FEA59
:1005200053432380A3889BB243F02403A38048F263
:100530001E03A383238C9BB243F00E0323844FF44A
:100540008043238123889BB243F001032380A38847
:100550009BB243F48063A380A3889BB243F40073EF
:10056000A38010BD10B44FF4A844C4F20004A0420C
:1005700007BF43F6C054C2F2000443F6A854C2F2C7
:10058000000421F001012170626023814FF000031B
:1005900063814FF00103237303889BB243F48063AC
:1005A000038003889BB243F48073038010BC7047C0
:1005B00070B5054616464FF4A843C4F200039842AE
:1005C00007BF43F6C054C2F2000443F6A854C2F277
:1005D000000441F001012170104601F0B5FA60609D
:1005E00026814FF0000363812373022E01BF2B8805
:1005F0009BB243F400632B802B889BB243F480634F
:100600002B802B889BB243F480732B8070BD00BF7E
:1006100010B401F1FF3103290CDD4FF003034FF05B
:100620000002C45C1219D2B203F10103DBB28B42A7
:10063000F7DB01E04FF000026FEA0200C0B210BC2D
:10064000704700BF30B40D4659B14FF000031A4651
:10065000C45C1219D2B203F10103DCB2AC42F7D38D
:1006600001E04FF00002FF2A14BF0020012030BC3F
:10067000704700BF2DE9F04186B043F66866C2F2CC
:10068000000643F6E458C2F2000840F20007C2F246
:100690000007306804A94FF0FF324FF0000301F06B
:1006A000AFFC059C9DF8105020462946FFF7CAFF75
:1006B000002857D02378812B02D0892B52D138E0E3
:1006C000A5F106058DF808504FF0780001F03CFACE
:1006D000019005990B788DF809304B784FEA032388
:1006E000ADF80A308A781343ADF80A30CB788DF82C
:1006F0000C300B798DF80D3001F105019DF80820C3
:1007000002F0BCF99DF808204FF0000301998B54CA
:1007100002F101028DF80820D8F8000001A94FF07D
:10072000040201F093FB01281CD0019801F084FA27
:1007300018E062783B789A4214D1A37893B940F2DA
:10074000A003C2F200031A6802F101021A6043F624
:100750006463C2F2000318684FF000010A460B46BA
:1007600001F074FB059801F067FA4FF00003059360
:100770008FE700BF10B44FF06C03C4F202031C6893
:100780004FF6FE7222401A60D96058604FF00002A6
:10079000C4F20202516841F4001151601A6842F03B
:1007A00001021A6010BC704710B44FF08003C4F20D
:1007B00002031C684FF6FE7222401A60D96058602E
:1007C0004FF00002C4F20202516841F00071516022
:1007D0001A6842F001021A6010BC70472DE9F04718
:1007E00043F6F056C2F2000643F6D054C2F20004BB
:1007F00043F6DC55C2F2000543F66469C2F2000913
:10080000306821464FF0FF324FF0000301F0F8FB53
:100810006379012BF4D1237903F109032B80236839
:100820006B604FF07E021A706B684FF000025A70D6
:100830006B682A78A2F104029A706B686279DA70A8
:10084000A37AC3B1696840F20003C2F200031B78C7
:1008500003F10102D2B22BB140F20003C2F2000355
:100860001A7006E040F20003C2F200034FF00200EB
:1008700018700A7103E06B684FF000021A716B6820
:10088000E2884FEA12225A716B68E2889A716B68AB
:100890004FF00007DF71D5F8048094F804A00AF146
:1008A000080A5FFA8AFA40462978FFF7B1FE08F88D
:1008B0000A0028886968FFF777FFD9F800003946F1
:1008C0004FF01E023B4601F09BFB012825D0A37A86
:1008D00003F1FF32A272A3B1306821463A464FF0CD
:1008E000010301F0B3FA01288AD0206801F0A4F9CD
:1008F00040F29A03C2F200031A8802F101021A8040
:100900007EE7206801F098F940F29A03C2F20003F2
:100910001A8802F101021A8072E7206801F08CF94E
:100920006EE700BF4FF48053C4F202039A6942F0AD
:1009300005029A61DA6942F40032DA61704700BF59
:100940004FF40063C4F201031A6822F440621A6093
:100950001A6842F400721A601A6842F400621A605F
:100960001A6822F440421A601A6822F440521A604F
:100970001A6842F480421A60704700BF10B54FF009
:100980000003C4F202031B6813F0007F1FBF0023A3
:10099000C4F202034FF000725A604FF00003C4F239
:1009A00002031B6813F0806F1FBF0023C4F2020311
:1009B0005A6842F0806218BF5A604FF00003C4F2D8
:1009C00002031B6813F0006F0FD043F6DC54C2F231
:1009D0000004606801F030F94FF000036360C4F276
:1009E00002035A6842F000625A604FF00003C4F2FA
:1009F00002035A6842F080725A6010BD10B54FF081
:100A00000003C4F202031B6813F4001F34D04FF438
:100A10008843C4F200039A8A22F040024FEA02425D
:100A20004FEA12429A829A8992B242F020029A8147
:100A30004FF00003C4F202034FF400125A6040F278
:100A40009C04C2F200044FF00003236043F6686286
:100A5000C2F20002106843F6E851C2F200012246D9
:100A600001F090FA2368012B01BF4EF60453CEF239
:100A700000034FF080521A604FF00003C4F20203EB
:100A80001B6813F4800F1FBF0023C4F202035A68CF
:100A900042F4800218BF5A604FF00003C4F2020310
:100AA0001B6813F4000F1AD043F6E853C2F2000398
:100AB000586801F0C1F84FF48842C4F200029389EB
:100AC00023F020034FEA03434FEA134393814FF08F
:100AD0000003C4F202035A6842F400025A604FF065
:100AE0000003C4F202035A6842F480125A6010BD37
:100AF00010B54FF48843C4F200031B8803F02003B1
:100B00009BB2002B5AD04FF48843C4F200039A885A
:100B100092B2D1B240F29803C2F20003197040F2CF
:100B20009903C2F200031B78012B0DD013B1022BE5
:100B300044D118E07E2941D140F29903C2F200036A
:100B40004FF001021A7039E043F6E853C2F2000395
:100B50004FEA02221A8040F29903C2F200034FF0DA
:100B600002021A702AE040F29903C2F200034FF029
:100B70000001197043F6E854C2F20004D2B223888F
:100B80001A4302F1010222804FF48843C4F20003A9
:100B90009A8A92B242F040029A829A8922F0200206
:100BA0004FEA02424FEA12429A814FF0780000F079
:100BB000CBFF014660602088FFF7DCFD4FF48843DF
:100BC000C4F200031B8803F080039BB25BB14FF4B7
:100BD0008842C4F20002138823F080034FEA0343E3
:100BE0004FEA1343138010BD4FF48053C4F2020345
:100BF0005B6913F0010F01BF4FF48053C4F202038D
:100C00005A6942F0010208BF5A614FF08003C4F2F2
:100C1000020344F20442C4F200029A604FF0000260
:100C2000DA604FF0060159601A6019684FF6DF72FA
:100C30000A401A601A6842F010021A601A6822F418
:100C400040721A6019684FF6BF720A401A6019683C
:100C50004FF2FF320A401A601A6842F080021A60AE
:100C60001A6842F002021A604FF46143CEF20003A8
:100C70004FF400321A604FF0F00283F811234FF462
:100C80008843C4F200039A8A92B242F080029A82A8
:100C9000704700BF4FF48053C4F202035B6913F046
:100CA000010F01BF4FF48053C4F202035A6942F0AE
:100CB000010208BF5A614FF06C03C4F2020344F210
:100CC0000442C4F200029A604FF00002DA604FF072
:100CD000060159601A6019684FF6DF720A401A60FF
:100CE00019684FF6EF720A401A6019684FF6FF4212
:100CF0000A401A6019684FF6BF720A401A601968F4
:100D00004FF2FF320A401A601A6842F080021A60FD
:100D10001A6842F002021A604FF46143CEF20003F7
:100D20004FF480321A604FF0F00283F810237047BE
:100D300010B584B0FFF7F6FDFFF702FE4FF48844CC
:100D4000C4F2000440F271232381A3899BB243F0D3
:100D50000803A381A3899BB243F00403A381A38961
:100D60009BB243F02003A381FFF73EFFFFF792FF02
:100D70004FF46143CEF200034FF040025A604FF04F
:100D8000F00283F82623A3899BB243F40053A38186
:100D90004FF005004FF008014FF0000201F02EF86F
:100DA00043F66863C2F2000318604FF005004FF08D
:100DB0000C014FF0000201F021F843F6F053C2F2AB
:100DC000000318604FF005004FF00C014FF00002D7
:100DD00001F014F843F6E453C2F2000318604FF038
:100DE00001004FF000014FF0030201F007F843F655
:100DF0006463C2F20003186028B14FF000010A4694
:100E00000B4601F023F843F66463C2F2000318684E
:100E10004FF000014FF001020B4601F0F1F84FF0E6
:100E2000030300934FF0000401940294039440F2F2
:100E30007560C0F6000042F6BC21C0F600014FF01C
:100E40008002234601F0D0F94FF001030093019492
:100E50000294039440F2DD70C0F6000042F6CC210B
:100E6000C0F600014FF08002234601F0BDF904B046
:100E700010BD00BFF0B585B007460C4616461D46AE
:100E800001F10A0000F060FE019048B300F1080093
:100E90003946224601F0F2FD4FF001038DF809308A
:100EA0008DF80840ADF80A608DF80E5043F6F05307
:100EB000C2F20003186801A94FF004024FF00003CA
:100EC00000F0C4FF012813D0019800F0B5FE40F2F5
:100ED0009A03C2F200031A8802F101021A8007E0A5
:100EE00040F29A03C2F200031A8802F101021A804A
:100EF00005B0F0BD2DE9F04182B04FF00003019341
:100F00004FF44065C4F201054FF400474FF001086B
:100F10001E4640F20104C2F20004019B23B1012BE2
:100F200018BF019607D103E06F61CDF8048002E09D
:100F30002F610196FFE7207801F0C0FBEDE700BFCD
:100F40002DE9F04786B041F2883001F0B7FB40F25E
:100F5000A60AC2F2000A43F6B858C2F200084FF4DB
:100F6000B047C4F2000740F20209C2F2000940F2A1
:100F7000A406C2F200064FF00003AAF800308DF874
:100F800014304FF051028DF81520D8F800001946A2
:100F90004FF0FF3201F034F838464FF0E10105AA76
:100FA0004FF00203FFF7DEFA4FF0460001F086FB38
:100FB00099F8003063B1338803F2726189B24FF45B
:100FC0003052C4F20102918603F1640333800BE0D6
:100FD000338803F2726189B24FF43052C4F20102D5
:100FE0009186A3F164033380338841F2AD5293427A
:100FF00084BF002389F8003004D81BB94FF00103E7
:1010000089F800304FF00A0001F058FB4FF002055C
:1010100006AC04F8045DD8F800004FF000014FF072
:10102000FF320B4600F0ECFF38464FF0E10122465C
:101030004FF00103FFF796FAD8F800004FF00001D7
:101040004FF0FF320B4600F0DBFF38464FF0E10176
:101050002A46FFF7ADFA43F6A053C2F20003186820
:1010600004A94FF0FF324FF0000300F0C9FF8DF8E4
:101070000450049B1A788DF805205B788DF80630B3
:1010800033888DF807304FEA13238DF8083043F684
:101090008C64C2F2000420684FF000014FF0FF3270
:1010A0000B4600F0ADFF01A84FF005012A464FF0B6
:1010B0000003FFF7DFFE20684FF000010A460B46F1
:1010C00000F0C4FE4FF0640001F0F8FA53E700BFEF
:1010D00070B584B043F6E454C2F2000440F2010655
:1010E000C2F2000640F2A005C2F20005206801A984
:1010F0004FF0FF324FF0000300F082FF01980378B9
:10110000012B02D0022B06D102E04378337002E0BB
:101110004FF000032B6000F08FFD4FF000030193B0
:10112000E4E700BF2DE9F84343F6A456C2F20006F7
:1011300030684FF000014FF0FF320B4600F060FFC7
:1011400043F66C64C2F200044FF0000525704FF0C6
:10115000180363704FF4A847C4F2000738464FF0F5
:101160003C0122464FF00203FFF7FCF930682946A4
:101170004FF0FF322B4600F043FF4FF0020884F897
:101180000080657038464FF03C0122464346FFF729
:10119000E9F9306829464FF0FF322B4600F030FF66
:1011A0004FF0010984F800904FF020036370384637
:1011B0004FF03C0122464346FFF7D4F930682946F8
:1011C0004FF0FF322B4600F01BFF4FF0030323705C
:1011D000657038464FF03C0122464B46FFF7C2F996
:1011E000BDE8F88370B543F6A455C2F2000528683F
:1011F0004FF000014FF0FF320B4600F001FF43F6C5
:101200006C64C2F200044FF0200323704FF02F03F0
:1012100063704FF4A846C4F2000630464FF0300128
:1012200022464FF00203FFF79DF928684FF00001B6
:101230004FF0FF320B4600F0E3FE4FF02303237024
:101240004FF0B003637030464FF0300122464FF04C
:101250000203FFF787F970BD70B543F6A455C2F2DB
:10126000000528684FF000014FF0FF320B4600F0F8
:10127000C7FE43F66C64C2F200044FF020032370F3
:101280004FF01F0363704FF4A846C4F200063046C7
:101290004FF0D00122464FF00203FFF763F92868B0
:1012A0004FF000014FF0FF320B4600F0A9FE4FF067
:1012B000230323704FF0A003637030464FF0D0013A
:1012C00022464FF00203FFF74DF928684FF0000166
:1012D0004FF0FF320B4600F093FE4FF024032370D3
:1012E0004FF04003637030464FF0D00122464FF07C
:1012F0000203FFF737F928684FF000014FF0FF3283
:101300000B4600F07DFE4FF02E0323704FF00003DC
:10131000637030464FF0D00122464FF00203FFF7D2
:1013200021F970BD2DE9F04F83B0FFF75BFFFFF7A8
:1013300093FFFFF7F7FE43F6A456C2F200064FF400
:10134000A845C4F2000543F6BC57C2F2000743F6B5
:101350007064C2F2000443F68C68C2F2000840F2E6
:101360000109C2F200094FF0A80B0DF1080A0AF8B2
:1013700008BD30684FF000014FF0FF320B4600F01F
:101380003FFE28464FF030016A464FF00103FFF759
:10139000E9F830684FF000014FF0FF320B4600F0E3
:1013A0002FFE28464FF030014FF00602FFF700F9FC
:1013B000386801A94FF0FF324FF0000300F020FE23
:1013C000019B1A7862705A78A2709A78E270DA7883
:1013D00022711A7962715B79A3718DF800B030685F
:1013E0004FF000014FF0FF320B4600F009FE284697
:1013F0004FF0D0016A464FF00103FFF7B3F83068B1
:101400004FF000014FF0FF320B4600F0F9FD284687
:101410004FF0D0014FF00602FFF7CAF8386801A973
:101420004FF0FF324FF0000300F0EAFD019B1A7805
:10143000E2715A7822729A786272DA78A2721A7914
:10144000E2725B79237330684FF000014FF0FF3296
:101450000B4600F0D5FD28464FF03C014FF0070247
:10146000FFF7A6F8386801A94FF0FF324FF00003EC
:1014700000F0C6FD019B1A7862735A78A2739A78BD
:10148000E273DA7822741A7962745B79A3744FF08C
:1014900003032370D8F800004FF000014FF0FF3233
:1014A0000B4600F0ADFD20464FF013014FF0020255
:1014B0001346FFF7DFFCD8F800004FF000010A46A2
:1014C0000B4600F0C3FC99F8000001F0F7F84AE77A
:1014D0004FF48053C4F202039A6942F400629A61A5
:1014E0009A6942F004029A614FF40063C4F2010366
:1014F0005A6822F00C025A605A6842F00A025A6096
:101500004FF43053C4F201034FF000021A804FF63B
:10151000FF729A851A8892B242F080021A804FF0C8
:1015200016021A8540F272629A861A8B92B242F0C3
:1015300068021A831A8C92B242F001021A84B3F83C
:1015400044206FEA42426FEA524292B2A3F844202A
:101550009A8A92B242F001029A821A8892B242F0BA
:1015600001021A80704700BF10B584B04FF4805359
:10157000C4F202039A6942F009029A619A6942F040
:1015800004029A614FF40063C4F201035A6842F006
:1015900020025A605A6822F0C0025A605A6842F427
:1015A00000725A605A6822F440625A605A6842F4E3
:1015B00000525A605A6822F440425A604FF00003C9
:1015C000C4F201035A6842F000725A604FF440635B
:1015D000C4F201031A6842F400321A601A6822F455
:1015E00040221A604FF010025A615A6842F00052CD
:1015F0005A605A6822F040425A60FFF769FF4FF084
:10160000010000F099FC43F68C63C2F200031860FD
:101610004FF0010000F090FC43F69063C2F200032B
:101620001860FFF785FB4FF4B040C4F20000FEF7EE
:10163000D9FE4FF4A840C4F20000FEF7D3FE4FF0ED
:101640000004009401940294039440F6F560C0F6FF
:10165000000042F6D821C0F600014FF040022346B8
:1016600000F0C2FD009401940294039441F22530ED
:10167000C0F6000042F6E021C0F600014FF0800203
:10168000234600F0B1FD009401940294039440F6C7
:101690004170C0F6000042F6EC21C0F600014FF0A8
:1016A0008002234600F0A0FD00940194029403946C
:1016B00041F2D100C0F6000042F6F421C0F600016C
:1016C0004FF08002234600F08FFD00F095FE20468B
:1016D00004B010BD0649074A074B9A42BEBF51F8F5
:1016E000040B42F8040BF8E704488047044800471D
:1016F000202B00080000002078000020DD170008E3
:10170000410100081F49204A002301E041F8043B41
:101710009142FBD3FFF728FFFEE7FEE7FEE7FEE777
:10172000FEE7FEE7FEE7FEE7FEE7FEE7FEE7FEE791
:10173000FEE7FEE7FEE7FEE7FEE7FEE7FEE7FEE781
:10174000FEE7FEE7FEE7FEE7FEE7FEE7FEE7FEE771
:10175000FEE7FEE7FEE7FEE7FEE7FEE7FEE7FEE761
:10176000FEE7FEE7FEE7FEE7FEE7FEE7FEE7FEE751
:10177000FEE7FEE7FEE7FEE7FEE7FEE7FEE7FEE741
:10178000FEE7FEE778000020943E002088B0036862
:1017900007934368069383680593C36804930369BA
:1017A00003934369029383690193C3690093FEE73E
:1017B000704700BF1EF0040F0CBFEFF30880EFF37B
:1017C00009808169004A10478D170008FEE700BFB5
:1017D000FEE700BFFEE700BF704700BF82B04FF4D6
:1017E0008053C4F202031A6842F001021A60596879
:1017F0004FF00002CFF6FF020A405A601A6822F04A
:10180000847222F480321A601A6822F480221A60EC
:101810005A6822F4FE025A604FF41F029A604FF099
:101820000002009201921A6842F480321A604FF46A
:101830008052C4F20202136803F400330193009B48
:1018400003F101030093019B1BB9009BB3F5A06F4B
:10185000F1D14FF48053C4F202031B6813F4003F2C
:1018600014BF012300230193019B012B44D14FF4AA
:101870000053C4F202031A6842F010021A601A6898
:1018800022F003021A601A6842F002021A604FF452
:101890008053C4F202035A685A605A685A605A6800
:1018A00042F480625A605A6822F47C125A605A6884
:1018B00042F488125A601A6842F080721A604FF43B
:1018C0008052C4F20202136813F0007FFBD04FF481
:1018D0008053C4F202035A6822F003025A605A6825
:1018E00042F002025A604FF48052C4F2020253687E
:1018F00003F00C03082BFAD14FF46D43CEF2000332
:101900004FF000629A6002B0704700BF00F1080318
:1019100043604FF0FF328260C36003614FF0000309
:10192000036070474FF000030361704743684B60EA
:101930009A688A609A68516099600861036803F147
:1019400001030360704700BF30B40D68B5F1FF3F7D
:101950000CBF026900F1080201D104E01A46536885
:101960001C68A542FAD253684B6099608A60516046
:101970000861036803F10103036030BC704700BFD6
:1019800003694268816891608268416851605A6861
:10199000824204BF92685A604FF0000202611868E8
:1019A00000F1FF301860704705480068006880F358
:1019B000088862B6BFF34F8FBFF36F8F00DF00BFA1
:1019C00008ED00E04FF0807340F8043C40F8081C3C
:1019D00041F65923C0F6000340F80C3C40F8202C97
:1019E000A0F14000704700BF074B19680868B0E8D5
:1019F000F00F80F30988BFF36F8F4FF0000080F382
:101A000011884EF00D0E7047583D00204EF60453DD
:101A1000CEF200034FF080521A60BFF34F8FBFF336
:101A20006F8F7047EFF311804FF0BF0181F3118882
:101A300070474FF0000000BF08B5FFF7F3FF40F21A
:101A40000403C2F200031A6802F101021A60BFF334
:101A50004F8FBFF36F8F08BD08B5FFF7E3FFFEE7B9
:101A600080F31188704700BF08B540F20403C2F24A
:101A700000031A6802F1FF321A601AB94FF0000031
:101A8000FFF7EEFF08BD00BFEFF30980BFF36F8FD4
:101A90000D4B1A6820E9F00F10602DE908404FF057
:101AA000BF0080F3118800F027FE4FF0000080F3A4
:101AB0001188BDE8084019680868B0E8F00F80F3A5
:101AC0000988BFF36F8F7047583D002008B5FFF7B6
:101AD000A9FF00F0C5FC30B14EF60453CEF200036E
:101AE0004FF080521A604FF00000FFF7B9FF08BDB9
:101AF0004EF21403CEF2000341F63F12C0F201028F
:101B00001A604EF21003CEF200034FF007021A6083
:101B1000704700BF08B54EF62053CEF200031A6896
:101B200042F47F021A601A6842F07F421A60FFF79F
:101B3000DFFF40F20403C2F200034FF000021A601C
:101B4000FFF732FFFFF788FF70B5044600F07EFC18
:101B500043F6B043C2F200031B68DBB9354A22F0FA
:101B6000070240F2A803C2F200031A604FF000001F
:101B7000586043F6B443C2F2000343F6F8315960AB
:101B800018605160136043F6B043C2F200034FF097
:101B900001021A604FF00005002C47D004F1080143
:101BA00011F0070F1CBF21F00701083101F1FF32CE
:101BB00043F6F6339A4288BF002537D840F2A8048E
:101BC000C2F20004236801E01C4613465A689142A1
:101BD00002D91A68002AF7D143F6B442C2F20002D1
:101BE000934221D0256805F108051A6822605A68D9
:101BF000521A102A0FD95E1872605960706840F24C
:101C0000A801C2F2000100E011460A685468A0422F
:101C1000FAD832600E6040F20802C2F20002116887
:101C20005B68C91A116001E04FF0000500F0C0FCCC
:101C3000284670BDB800002070B50546E8B1A0F197
:101C4000080600F003FC55F8044C40F2A802C2F26A
:101C5000000200E01A46136859688C42FAD845F829
:101C6000083C166040F20803C2F200031A6855F8F7
:101C7000041C52181A6000F09BFC70BD38B5034676
:101C800005685DB1026CC468A418C46040688442F1
:101C900028BFDD600846D96800F0F0FE38BD00BFFF
:101CA00038B50446FFF7C8FEA36C002B14DD636A49
:101CB0001BB911E0636A13B90EE004F1240528464C
:101CC00000F094FD08B100F015FEA36C03F1FF33A2
:101CD000A364A36C002BEDDC4FF0FF33A364FFF78C
:101CE000C3FEFFF7A9FE636C002B14DD23691BB94B
:101CF00011E0236913B90EE004F11005284600F045
:101D000075FD08B100F0F6FD636C03F1FF33636409
:101D1000636C002BEDDC4FF0FF336364FFF7A4FE30
:101D200038BD00BF38B504461546026C4AB9036891
:101D3000002B2BD1406800F03BFE4FF000036360A6
:101D400024E065B9806800F099FEA268236CD3187E
:101D5000A3606268934219D32368A36016E0C06849
:101D600000F08CFE226CC2F10002E3689B18E36075
:101D700021688B423EBF63689A18E260022D05D14C
:101D8000A36B1BB1A36B03F1FF33A363A36B03F13D
:101D90000103A36338BD00BF38B504460D46FFF705
:101DA0004BFE2368E06B226C00FB023161604FF058
:101DB0000001A163A36000F1FF3002FB0033E36088
:101DC0004FF0FF336364A36455B9236983B104F111
:101DD000100000F00BFD01280AD1FFF717FE07E005
:101DE00004F11000FFF792FD04F12400FFF78EFDCF
:101DF000FFF73AFE4FF0010038BD00BF70B50D4649
:101E00000646E0B14FF04C00FFF79EFE0446C8B115
:101E100006FB05F000F10100FFF796FE206040B1DF
:101E2000E663256420464FF00101FFF7B5FF204629
:101E300070BD2046FFF700FF4FF0000070BD4FF06F
:101E4000000070BD4FF0000070BD00BF2DE9F04FE5
:101E500085B004460091019298464FF000074FF07C
:101E6000010BB94600F1100AFFF7E6FDA26BE36B28
:101E70009A4202D3B8F1020F13D12046009942468C
:101E8000FFF750FF636A3BB104F1240000F0AEFCA1
:101E9000012801D1FFF7BAFDFFF7E6FD4FF0010081
:101EA00047E0019B23B9FFF7DFFD4FF0000040E062
:101EB0001FB902A800F0E0FC5F46FFF7D5FD00F077
:101EC000C5FAFFF7B9FD636CB3F1FF3F08BFC4F873
:101ED0004490A36CB3F1FF3F08BFC4F84890FFF7EC
:101EE000C3FD02A801A900F0D5FCD8B9FFF7A4FDF5
:101EF000A66BE56BFFF7B8FDAE420DD150460199D8
:101F000000F04EFC2046FFF7CBFE00F051FB00280E
:101F1000AAD1FFF77BFDA7E72046FFF7C1FE00F03F
:101F200047FBA1E72046FFF7BBFE00F041FB4FF067
:101F3000000005B0BDE8F08F38B54FF04C00FFF75A
:101F400003FE0446E0B14FF0000545600560856082
:101F5000C56085634FF00103C36305644FF0FF3331
:101F60004364836400F11000FFF7D0FC04F1240007
:101F7000FFF7CCFC204629462A462B46FFF766FF92
:101F8000204638BD2DE9F04104460F4690461D46D7
:101F9000FFF748FD0646A06BE36B984203D3022D82
:101FA00018BF002425D1204639462A46FFF7BAFE3D
:101FB000A36CB3F1FF3F12D1636ABBB104F12400FB
:101FC00000F014FC4FF0010498B14FF00104B8F197
:101FD000000F0ED04FF00104C8F8004009E0A36CD8
:101FE00003F10103A3644FF0010402E04FF0010488
:101FF000FFE73046FFF734FD2046BDE8F08100BF23
:102000002DE9F04F85B004468A46019299464FF07B
:1020100000054FF001082F4600F12406FFF70CFDE4
:10202000A26B52B3E56820465146FFF727FEB9F18F
:10203000000F13D1A36B03F1FF33A363236813B91C
:1020400000F060FC6060236993B104F1100000F0BF
:10205000CDFB01280CD1FFF7D9FC09E0E560636AEC
:1020600033B104F1240000F0C1FB08B1FFF7CEFC4E
:10207000FFF7FAFC4FF001004FE0019B23B9FFF797
:10208000F3FC4FF0000048E01DB902A800F0F4FB9B
:102090004546FFF7E9FC00F0D9F9FFF7CDFC636C8A
:1020A000B3F1FF3F08BF6764A36CB3F1FF3F08BF04
:1020B000A764FFF7D9FC02A801A900F0EBFB28BB3D
:1020C000FFF7BAFCD4F838B0FFF7CEFCBBF1000F35
:1020D00016D1236833B9FFF7AFFC606800F018FC35
:1020E000FFF7C2FC3046019900F05AFB2046FFF78B
:1020F000D7FD00F05DFA002890D1FFF787FC8DE74F
:102100002046FFF7CDFD00F053FA87E72046FFF7A2
:10211000C7FD00F04DFA4FF0000005B0BDE8F08FAC
:1021200043F6BC43C2F200031B681B683BB940F294
:102130000C03C2F200034FF0FF321A60704743F6FF
:10214000BC43C2F200031B68DB68DB685A6840F2DC
:102150000C03C2F200031A60704700BF10B50446BA
:1021600043F65853C2F200031B68586043F6745399
:10217000C2F200031B6898420ED243F67853C2F2B3
:102180000003186843F65853C2F20003196801F1BE
:102190000401FFF7D9FB10BD43F6BC43C2F20003B4
:1021A000186843F65853C2F20003196801F104019C
:1021B000FFF7CAFB40F20C03C2F200031B689C420B
:1021C0003EBF40F20C03C2F200031C6010BD00BF12
:1021D00010B543F6F044C2F200042368012B02D983
:1021E000FFF714FCF9E7FEE72DE9F84F81460D46AD
:1021F00093469A46DDF828800B9F0C9C4FF04800D0
:10220000FFF7A2FC0646002800F0F180002C40F009
:10221000DC804FEA8B00FFF797FC3063002840F02A
:10222000D5803046FFF708FDE1E02B4615F8011F89
:10223000321982F834105B781BB104F10104102CC0
:10224000F3D14FF0000386F84330B8F1040F34BFE8
:1022500045460425F562756406F104042046FFF73F
:1022600061FB06F11800FFF75DFB3661C5F105055E
:10227000B5617662584649465246FFF7A3FB306087
:1022800007B13E60FFF7D8FB43F68053C2F200036C
:102290001A6802F101021A6043F65853C2F20003B1
:1022A0001B68002B40D143F65853C2F200031E6056
:1022B00043F68053C2F200031B68012B47D14FF055
:1022C000000543F6F047C2F2000705EB850007EB77
:1022D0008000FFF71BFB05F10105052DF5D143F645
:1022E000C447C2F200073846FFF710FB43F6D84553
:1022F000C2F200052846FFF709FB43F65C50C2F224
:102300000000FFF703FB43F68450C2F20000FFF722
:10231000FDFA43F6BC43C2F200031F6043F6785354
:10232000C2F200031D6012E043F6C043C2F2000394
:102330001B6863B943F65853C2F200031B68DB6A9B
:10234000984522BF43F65853C2F200031E6043F67D
:102350007C53C2F200031A6802F101021A60F36AA8
:1023600043F69852C2F200021268934282BF43F6CB
:102370009852C2F20002136043F6F040C2F200002D
:1023800003EB830300EB83002146FFF7CFFAFFF74F
:102390006BFB43F6C043C2F200031B686BB143F60C
:1023A0005853C2F200031B68DB6A984509D9FFF74E
:1023B0002DFB4FF00100BDE8F88F4FF00100BDE8A4
:1023C000F88F4FF00100BDE8F88F04630BF1FF3B7D
:1023D000336B03EB8B0B2BF0070B2B7886F8343029
:1023E0002B78002B3FF42DAF4FF001041DE74FF089
:1023F000FF30BDE8F88F00BF00B585B04FF0000397
:10240000009301930293039342F2D110C0F60000AF
:1024100042F60431C0F600014FF08002FFF7E4FEFF
:10242000012811D1FFF7FEFA43F6C043C2F20003C0
:102430004FF001021A6043F67453C2F200034FF0EA
:1024400000021A60FFF766FB05B000BD43F6545367
:10245000C2F200031A6802F101021A60704700BF5D
:102460002DE9F84F43F65453C2F200031B68002BCA
:1024700040F0888043F67453C2F200031A6802F1F8
:1024800001021A60D3F80080B8F1000F15D143F6AD
:10249000BC42C2F20002116843F67853C2F2000354
:1024A00018681060196043F67053C2F200031A688E
:1024B00002F101021A60FFF733FE40F20C03C2F290
:1024C00000031B68984538BF002549D34FF000052D
:1024D00043F6BC47C2F2000743F69859C2F200091E
:1024E00043F6F04BC2F2000B43F6585A3B681B68A8
:1024F0003BB940F20C03C2F200034FF0FF321A6006
:102500002EE03B68DB68DC686368984505D240F2E2
:102510000C02C2F20002136022E004F1040630460D
:10252000FFF72EFAA36A1BB104F11800FFF728FA8F
:10253000E06AD9F80030984288BFC9F8000000EB83
:1025400080000BEB80003146FFF7F0F95346C2F2F2
:1025500000031B68E26ADB6A9A4228BF0125C5E7CF
:1025600043F65853C2F200031A6843F6F043C2F22E
:102570000003D26A02EB820253F82230012B88BF9B
:10258000012509E043F6EC43C2F200031A6802F1A8
:1025900001021A604FF0000543F69C53C2F200039B
:1025A000186800280CBF28460120BDE8F88F00BF3E
:1025B0002DE9F843FFF740FA43F65453C2F2000303
:1025C0001A6802F1FF321A601B684FF00004002BFA
:1025D0006FD143F68053C2F200031B684BBB4FF030
:1025E000000466E0F368DC6804F11800FFF7C8F93E
:1025F00004F104052846FFF7C3F9E36A3A689342F9
:1026000088BF3B6003EB830009EB80002946FFF79E
:102610008DF94346C2F200031B68E26ADB6A9A4204
:1026200015D343F69C53C2F200034FF001021A6027
:102630000DE043F65C56C2F2000643F69857C2F22C
:10264000000743F6F049C2F2000943F658583368D0
:10265000002BC7D143F6EC43C2F200031B68D3B191
:1026600043F6EC43C2F200031B68A3B143F69C5649
:10267000C2F200064FF0010543F6EC44C2F200043A
:10268000FFF7EEFE00B13560236803F1FF332360EE
:102690002368002BF4D143F69C53C2F200031B685D
:1026A000012B18BF002404D1FFF7B0F94FF001044B
:1026B000FFE7FFF7D9F92046BDE8F88310B50446D7
:1026C000B0B1FFF7C3FE43F67453C2F200031B68B8
:1026D000E41843F65853C2F20003186800F10400EE
:1026E000FFF74EF92046FFF739FDFFF761FF08B904
:1026F000FFF78CF910BD00BF43F65453C2F200033C
:102700001B683BB143F69C53C2F200034FF0010239
:102710001A60704743F69C53C2F200034FF0000268
:102720001A6043F69853C2F200031A6843F6F04366
:10273000C2F2000302EB820253F8223093B943F64F
:102740009853C2F2000343F6F041C2F200011A6846
:1027500002F1FF321A601A6802EB820251F822205D
:10276000002AF4D043F69853C2F200031B6843F6E4
:10277000F042C2F2000203EB830302EB83035A68C8
:1027800052685A6003F108018A4204BF52685A60D5
:102790005B68DA6843F65853C2F200031A60704768
:1027A00038B50D4643F65854C2F20004216801F1D1
:1027B0001801FFF7C9F8206800F10400FFF7E0F8FE
:1027C000B5F1FF3F09D1216843F68450C2F2000001
:1027D00001F10401FFF7AAF838BD43F67453C2F2C1
:1027E000000318682818FFF7B9FC38BD38B5C3686E
:1027F000DC6804F118052846FFF7C2F843F6545385
:10280000C2F200031B68EBB904F104052846FFF788
:10281000B7F8E36A43F69852C2F200021268934294
:1028200082BF43F69852C2F20002136043F6F040B2
:10283000C2F2000003EB830300EB83002946FFF79D
:1028400075F806E043F65C50C2F200002946FFF737
:102850006DF843F65853C2F200031B68E26ADB6A64
:102860009A4281BF43F69C53C2F2000301201860D4
:1028700098BF002038BD00BF43F67053C2F200037A
:102880001B68036043F67453C2F200031B68436085
:10289000704700BF38B504460D46FFF7CDF843F644
:1028A0007453C2F2000318682A68B2F1FF3F08BFF0
:1028B00000241BD043F67053C2F20003196823684A
:1028C0008B4204D06368984228BF01240ED263680B
:1028D000C11A8A4298BF012408D9181A82182A609E
:1028E0002046FFF7C9FF4FF00004FFE7FFF7BCF8F1
:1028F000204638BD43F69C53C2F200034FF001025C
:102900001A60704743F65853C2F2000318687047C4
:1029100038B5044600284AD0C26A43F65853C2F27A
:1029200000031B68DB6A9A4241D28369002B08DBF3
:1029300043F65853C2F200031B68DB6AC3F1050378
:10294000836143F6F043C2F2000302EB820203EB21
:1029500082036169994223D104F104052846FFF7F7
:102960000FF843F65853C2F200031B68DB6AE362B8
:1029700043F69852C2F200021268934282BF43F6B5
:102980009852C2F20002136043F6F040C2F2000017
:1029900003EB830300EB83002946FEF7C7FF38BD36
:1029A00043F65853C2F200031B68DB6AE36238BD8A
:1029B00038B5044638B3C26A436C9A4223D000F15A
:1029C00004052846FEF7DCFF636CE362A269002A77
:1029D000A4BFC3F10502A26143F69852C2F20002FD
:1029E0001268934282BF43F69852C2F2000213600B
:1029F00043F6F040C2F2000003EB830300EB8300D8
:102A00002946FEF793FF38BD08B5074B044613B1BE
:102A10000021AFF30080054B1868836A03B1984723
:102A2000204600F03DF800BF00000000102B000819
:102A300070B50E4B0E4D0024ED1AAD101E4603E08E
:102A400056F8242090470134AC42F9D100F02AF81E
:102A5000084D094B0024ED1AAD101E4603E056F850
:102A6000242090470134AC42F9D170BD70000020A1
:102A700070000020740000207000002010B50023BA
:102A800002E0CC5CC45401339342FAD110BD8218E9
:102A9000034601E003F8011B9342FBD1704700009D
:102AA000FEE700BFF8B500BFF8BC08BC9E46704703
:102AB000F8B500BFF8BC08BC9E46704758425F524C
:102AC000785061636B5061727365720058425F5356
:102AD000656E646572000000426C696E6B320000C6
:102AE00053656E736F72735265616400536F6E61EC
:102AF00072000000436F6D6D616E645061726365BA
:102B00007200000049444C450000000043000000F2
:082B100010000020000000008D
:082B180028D6FF7F0100000038
:102B200001320100AAAAAAAAF83B0000FFFFFFFF9A
:102B30000000000000000000000000000000000095
:102B40000000000000000000000000000000000085
:102B50000C2B000800000000000000000000000036
:102B60000000000000000000000000000000000065
:102B70000000000000000000000000000000000055
:102B80000000000000000000000000000000000045
:082B900011010008ED0000082E
:0400000508000000EF
:00000001FF
